{
  "address": "0xe7f1725E7734CE288F8367e1Bb143E90bb3F0512",
  "abi": [
    {
      "inputs": [
        {
          "internalType": "address",
          "name": "priceFeedAddress",
          "type": "address"
        }
      ],
      "stateMutability": "nonpayable",
      "type": "constructor"
    },
    {
      "inputs": [],
      "name": "FundMe__NotOwner",
      "type": "error"
    },
    {
      "stateMutability": "payable",
      "type": "fallback"
    },
    {
      "inputs": [],
      "name": "MINIMUM_USD",
      "outputs": [
        {
          "internalType": "uint256",
          "name": "",
          "type": "uint256"
        }
      ],
      "stateMutability": "view",
      "type": "function"
    },
    {
      "inputs": [],
      "name": "cheaperWithdraw",
      "outputs": [],
      "stateMutability": "payable",
      "type": "function"
    },
    {
      "inputs": [],
      "name": "fund",
      "outputs": [],
      "stateMutability": "payable",
      "type": "function"
    },
    {
      "inputs": [
        {
          "internalType": "address",
          "name": "_address",
          "type": "address"
        }
      ],
      "name": "getAddressToAmountFunded",
      "outputs": [
        {
          "internalType": "uint256",
          "name": "",
          "type": "uint256"
        }
      ],
      "stateMutability": "view",
      "type": "function"
    },
    {
      "inputs": [
        {
          "internalType": "uint256",
          "name": "index",
          "type": "uint256"
        }
      ],
      "name": "getFunder",
      "outputs": [
        {
          "internalType": "address",
          "name": "",
          "type": "address"
        }
      ],
      "stateMutability": "view",
      "type": "function"
    },
    {
      "inputs": [],
      "name": "getOwner",
      "outputs": [
        {
          "internalType": "address",
          "name": "",
          "type": "address"
        }
      ],
      "stateMutability": "view",
      "type": "function"
    },
    {
      "inputs": [],
      "name": "getPriceFeed",
      "outputs": [
        {
          "internalType": "contract AggregatorV3Interface",
          "name": "",
          "type": "address"
        }
      ],
      "stateMutability": "view",
      "type": "function"
    },
    {
      "inputs": [],
      "name": "withdraw",
      "outputs": [],
      "stateMutability": "nonpayable",
      "type": "function"
    },
    {
      "stateMutability": "payable",
      "type": "receive"
    }
  ],
  "transactionHash": "0x341a5c496317f71ab84216dfa12873831ea78b001e306349c9fcb3067acdc40e",
  "args": [
    "0x5FbDB2315678afecb367f032d93F642f64180aa3"
  ],
  "numDeployments": 1,
  "solcInputHash": "1b79ade56b8d585241eb07808481bb15",
  "bytecode": "0x60a060405234801561001057600080fd5b50604051610e1b380380610e1b83398181016040528101906100329190610110565b3373ffffffffffffffffffffffffffffffffffffffff1660808173ffffffffffffffffffffffffffffffffffffffff168152505080600260006101000a81548173ffffffffffffffffffffffffffffffffffffffff021916908373ffffffffffffffffffffffffffffffffffffffff1602179055505061013d565b600080fd5b600073ffffffffffffffffffffffffffffffffffffffff82169050919050565b60006100dd826100b2565b9050919050565b6100ed816100d2565b81146100f857600080fd5b50565b60008151905061010a816100e4565b92915050565b600060208284031215610126576101256100ad565b5b6000610134848285016100fb565b91505092915050565b608051610cb5610166600039600081816102c20152818161051101526105610152610cb56000f3fe60806040526004361061007f5760003560e01c80639e87a5cd1161004e5780639e87a5cd14610142578063b60d42881461016d578063be2693f014610177578063d7b4750c146101815761008e565b80630343fb25146100985780633ccfd60b146100d55780636b69a592146100ec578063893d20e8146101175761008e565b3661008e5761008c6101be565b005b6100966101be565b005b3480156100a457600080fd5b506100bf60048036038101906100ba9190610955565b610278565b6040516100cc919061099b565b60405180910390f35b3480156100e157600080fd5b506100ea6102c0565b005b3480156100f857600080fd5b50610101610500565b60405161010e919061099b565b60405180910390f35b34801561012357600080fd5b5061012c61050d565b60405161013991906109c5565b60405180910390f35b34801561014e57600080fd5b50610157610535565b6040516101649190610a3f565b60405180910390f35b6101756101be565b005b61017f61055f565b005b34801561018d57600080fd5b506101a860048036038101906101a39190610a86565b610803565b6040516101b591906109c5565b60405180910390f35b346000803373ffffffffffffffffffffffffffffffffffffffff1673ffffffffffffffffffffffffffffffffffffffff168152602001908152602001600020600082825461020c9190610ae2565b925050819055506001339080600181540180825580915050600190039060005260206000200160009091909190916101000a81548173ffffffffffffffffffffffffffffffffffffffff021916908373ffffffffffffffffffffffffffffffffffffffff160217905550565b60008060008373ffffffffffffffffffffffffffffffffffffffff1673ffffffffffffffffffffffffffffffffffffffff168152602001908152602001600020549050919050565b7f000000000000000000000000000000000000000000000000000000000000000073ffffffffffffffffffffffffffffffffffffffff163373ffffffffffffffffffffffffffffffffffffffff1614610345576040517f579610db00000000000000000000000000000000000000000000000000000000815260040160405180910390fd5b60005b6001805490508110156103f05760006001828154811061036b5761036a610b16565b5b9060005260206000200160009054906101000a900473ffffffffffffffffffffffffffffffffffffffff16905060008060008373ffffffffffffffffffffffffffffffffffffffff1673ffffffffffffffffffffffffffffffffffffffff168152602001908152602001600020819055505080806103e890610b45565b915050610348565b50600067ffffffffffffffff81111561040c5761040b610b8d565b5b60405190808252806020026020018201604052801561043a5781602001602082028036833780820191505090505b506001908051906020019061045092919061084b565b5060003373ffffffffffffffffffffffffffffffffffffffff164760405161047790610bed565b60006040518083038185875af1925050503d80600081146104b4576040519150601f19603f3d011682016040523d82523d6000602084013e6104b9565b606091505b50509050806104fd576040517f08c379a00000000000000000000000000000000000000000000000000000000081526004016104f490610c5f565b60405180910390fd5b50565b6802b5e3af16b188000081565b60007f0000000000000000000000000000000000000000000000000000000000000000905090565b6000600260009054906101000a900473ffffffffffffffffffffffffffffffffffffffff16905090565b7f000000000000000000000000000000000000000000000000000000000000000073ffffffffffffffffffffffffffffffffffffffff163373ffffffffffffffffffffffffffffffffffffffff16146105e4576040517f579610db00000000000000000000000000000000000000000000000000000000815260040160405180910390fd5b6000600180548060200260200160405190810160405280929190818152602001828054801561066857602002820191906000526020600020905b8160009054906101000a900473ffffffffffffffffffffffffffffffffffffffff1673ffffffffffffffffffffffffffffffffffffffff168152602001906001019080831161061e575b5050505050905060005b81518110156106f25760008282815181106106905761068f610b16565b5b6020026020010151905060008060008373ffffffffffffffffffffffffffffffffffffffff1673ffffffffffffffffffffffffffffffffffffffff168152602001908152602001600020819055505080806106ea90610b45565b915050610672565b50600067ffffffffffffffff81111561070e5761070d610b8d565b5b60405190808252806020026020018201604052801561073c5781602001602082028036833780820191505090505b506001908051906020019061075292919061084b565b5060003373ffffffffffffffffffffffffffffffffffffffff164760405161077990610bed565b60006040518083038185875af1925050503d80600081146107b6576040519150601f19603f3d011682016040523d82523d6000602084013e6107bb565b606091505b50509050806107ff576040517f08c379a00000000000000000000000000000000000000000000000000000000081526004016107f690610c5f565b60405180910390fd5b5050565b60006001828154811061081957610818610b16565b5b9060005260206000200160009054906101000a900473ffffffffffffffffffffffffffffffffffffffff169050919050565b8280548282559060005260206000209081019282156108c4579160200282015b828111156108c35782518260006101000a81548173ffffffffffffffffffffffffffffffffffffffff021916908373ffffffffffffffffffffffffffffffffffffffff1602179055509160200191906001019061086b565b5b5090506108d191906108d5565b5090565b5b808211156108ee5760008160009055506001016108d6565b5090565b600080fd5b600073ffffffffffffffffffffffffffffffffffffffff82169050919050565b6000610922826108f7565b9050919050565b61093281610917565b811461093d57600080fd5b50565b60008135905061094f81610929565b92915050565b60006020828403121561096b5761096a6108f2565b5b600061097984828501610940565b91505092915050565b6000819050919050565b61099581610982565b82525050565b60006020820190506109b0600083018461098c565b92915050565b6109bf81610917565b82525050565b60006020820190506109da60008301846109b6565b92915050565b6000819050919050565b6000610a05610a006109fb846108f7565b6109e0565b6108f7565b9050919050565b6000610a17826109ea565b9050919050565b6000610a2982610a0c565b9050919050565b610a3981610a1e565b82525050565b6000602082019050610a546000830184610a30565b92915050565b610a6381610982565b8114610a6e57600080fd5b50565b600081359050610a8081610a5a565b92915050565b600060208284031215610a9c57610a9b6108f2565b5b6000610aaa84828501610a71565b91505092915050565b7f4e487b7100000000000000000000000000000000000000000000000000000000600052601160045260246000fd5b6000610aed82610982565b9150610af883610982565b9250828201905080821115610b1057610b0f610ab3565b5b92915050565b7f4e487b7100000000000000000000000000000000000000000000000000000000600052603260045260246000fd5b6000610b5082610982565b91507fffffffffffffffffffffffffffffffffffffffffffffffffffffffffffffffff8203610b8257610b81610ab3565b5b600182019050919050565b7f4e487b7100000000000000000000000000000000000000000000000000000000600052604160045260246000fd5b600081905092915050565b50565b6000610bd7600083610bbc565b9150610be282610bc7565b600082019050919050565b6000610bf882610bca565b9150819050919050565b600082825260208201905092915050565b7f43616c6c206661696c6564000000000000000000000000000000000000000000600082015250565b6000610c49600b83610c02565b9150610c5482610c13565b602082019050919050565b60006020820190508181036000830152610c7881610c3c565b905091905056fea26469706673582212201e6b403e944f2744eb97e7495525f9f6c8a3fed3c106897b6fbec298ca2d6c6864736f6c63430008120033",
  "devdoc": {
    "kind": "dev",
    "methods": {},
    "version": 1
  },
  "userdoc": {
    "kind": "user",
    "methods": {},
    "version": 1
  },
  "storageLayout": {
    "storage": [
      {
        "astId": 59,
        "contract": "contracts/FundMe.sol:FundMe",
        "label": "s_addressToAmountFunded",
        "offset": 0,
        "slot": "0",
        "type": "t_mapping(t_address,t_uint256)"
      },
      {
        "astId": 62,
        "contract": "contracts/FundMe.sol:FundMe",
        "label": "s_funders",
        "offset": 0,
        "slot": "1",
        "type": "t_array(t_address)dyn_storage"
      },
      {
        "astId": 74,
        "contract": "contracts/FundMe.sol:FundMe",
        "label": "s_priceFeed",
        "offset": 0,
        "slot": "2",
        "type": "t_contract(AggregatorV3Interface)45"
      }
    ],
    "types": {
      "t_address": {
        "encoding": "inplace",
        "label": "address",
        "numberOfBytes": "20"
      },
      "t_array(t_address)dyn_storage": {
        "base": "t_address",
        "encoding": "dynamic_array",
        "label": "address[]",
        "numberOfBytes": "32"
      },
      "t_contract(AggregatorV3Interface)45": {
        "encoding": "inplace",
        "label": "contract AggregatorV3Interface",
        "numberOfBytes": "20"
      },
      "t_mapping(t_address,t_uint256)": {
        "encoding": "mapping",
        "key": "t_address",
        "label": "mapping(address => uint256)",
        "numberOfBytes": "32",
        "value": "t_uint256"
      },
      "t_uint256": {
        "encoding": "inplace",
        "label": "uint256",
        "numberOfBytes": "32"
      }
    }
  }
}